:040000004AEF01F0D2
:10000800FACF2FF0FBCF30F0E9CF31F0EACF32F062
:10001800E1CF33F0E2CF34F0D9CF35F0DACF36F094
:10002800F3CF37F0F4CF38F0F6CF39F0F7CF3AF016
:10003800F8CF3BF0F5CF3CF0F2B8F2A203D0D9EC00
:100048000AF00BD0F0B6F0A003D0D5EC0AF005D03A
:10005800F0B8F0A202D0D1EC0AF0F2A468D0630E96
:10006800D76EBF0ED66EF2940180010E0001B6273E
:10007800000E0001B7230001B8230001B923045082
:10008800D8B405D00406046602D0010E226E0550CD
:10009800D8B405D00506056602D0010E2A6E4C506C
:1000A800D8A44C064C50320AD8B401744C6606D019
:1000B800640E4C6E01764D50D8A44D064B50D8A412
:1000C8004B064B6603D00A0E4B6E01720350D8B430
:1000D8002ED0000E036E000E3F6E26D03F50020D4C
:1000E8000001A20EF324D96E0001000EF420DA6E8E
:1000F800DECF3DF0DDCF3EF03E503D10D8B405D008
:100108003D06D8A03E06010E036E3F50020D0001C9
:10011800A20EF324D96E0001000EF420DA6E3DC061
:10012800DEFF3EC0DDFF3F2A090E3F64D7D79EAAF7
:1001380029D0AECF1FF05F0E205CD8B00DD0205074
:10014800010D0101000EF324D96E0101010EF42006
:10015800DA6E1FC0DFFF202A2050010D0101000EBA
:10016800F324D96E0101010EF420DA6E000EDF6E61
:100178001F500D0AD8B41D2A1F500A0AD8B41E2AC7
:100188000A0E046E9DB89EA819D02450010D0001D6
:10019800600EF324D96E0001000EF420DA6EDF50F1
:1001A800AD6E242A2450200AD8A402D0000E246E52
:1001B8002306236603D0000E246E9D98A4AA2DD092
:1001C80071A202D07198718874CF27F05F0E285CF5
:1001D800D8B00DD02850010D0101600EF324D96E5E
:1001E8000101010EF420DA6E27C0DFFF282A28500B
:1001F800010D0101600EF324D96E0101010EF420F6
:10020800DA6E000EDF6E27500D0AD8B4252A275063
:100218000A0AD8B4262A0A0E056EA3B8A4A819D0CB
:100228002C50010D0001810EF324D96E0001000E3F
:10023800F420DA6EDF50736E2C2A2C50200AD8A4D2
:1002480002D0000E2C6E2B062B6603D0000E2C6EEF
:10025800A3983CC0F5FF3BC0F8FF3AC0F7FF39C090
:10026800F6FF38C0F4FF37C0F3FF36C0DAFF35C0F9
:10027800D9FF34C0E2FF33C0E1FF32C0EAFF31C02A
:10028800E9FF30C0FBFF2FC0FAFF1100D9EF09F0DA
:100600000048656C6C6F20576F726C640000456E1B
:100610003AD2446603D09290899012004450020A64
:10062000D8A403D09280899012004450030AD8A421
:1006300005D09280000E92EC0AF012009280899010
:100640001200446603D09292899212004450020A2A
:10065000D8A403D09282899212004450030AD8A4ED
:1006600005D09282010E92EC0AF0120092828992D9
:100670001200446603D09294899412004450020AF6
:10068000D8A403D09284899412004450030AD8A4B9
:1006900005D09284020E92EC0AF0120092848994A2
:1006A0001200446603D09296899612004450020AC2
:1006B000D8A403D09286899612004450030AD8A485
:1006C00005D09286030E92EC0AF01200928689966B
:1006D0001200446603D09298899812004450020A8E
:1006E000D8A403D092888998120092888998120021
:1006F000446603D0929A899A12004450020AD8A400
:1007000003D0928A899A12004450030AD8A405D0D3
:10071000928A040E92EC0AF01200928A899A1200D0
:10072000446603D0929C899C12004450020AD8A4CB
:1007300003D0928C899C1200928C899C1200446692
:1007400003D0929E899E12004450020AD8A403D07E
:10075000928E899E1200928E899E1200446603D06A
:1007600093908A9012004450020AD8A403D0938038
:100770008A90120093808A901200446603D093926C
:100780008A9212004450020AD8A403D093828A921B
:10079000120093828A921200446603D093948A9442
:1007A00012004450020AD8A403D093848A94120001
:1007B00093848A941200446603D093968A9612001A
:1007C0004450020AD8A403D093868A9612009386D6
:1007D0008A961200446603D093988A981200445077
:1007E000020AD8A403D093888A98120093888A9822
:1007F0001200446603D0939A8A9A12004450020A67
:10080000D8A403D0938A8A9A1200938A8A9A1200F3
:10081000446603D0939C8A9C12004450020AD8A4D8
:1008200003D0938C8A9C1200938C8A9C120044669D
:1008300003D0939E8A9E12004450020AD8A403D08B
:10084000938E8A9E1200938E8A9E1200446603D075
:1008500094908B9012004450020AD8A403D0948044
:100860008B90120094808B901200446603D0949277
:100870008B9212004450020AD8A403D094828B9227
:10088000120094828B921200446603D094948B944D
:1008900012004450020AD8A403D094848B9412000E
:1008A00094848B941200446603D094968B96120025
:1008B0004450020AD8A403D094868B9612009486E2
:1008C0008B961200446603D094988B981200445083
:1008D000020AD8A403D094888B98120094888B982D
:1008E0001200446603D0949A8B9A12004450020A74
:1008F000D8A403D0948A8B9A1200948A8B9A1200FF
:10090000446603D0949C8B9C12004450020AD8A4E5
:1009100003D0948C8B9C1200948C8B9C12004466A8
:1009200003D0949E8B9E12004450020AD8A403D098
:10093000948E8B9E1200948E8B9E1200446603D080
:1009400095908C9012004450020AD8A403D0958050
:100950008C90120095808C901200446603D0959282
:100960008C9212004450020AD8A403D095828C9233
:10097000120095828C921200446603D095948C9458
:1009800012004450020AD8A403D095848C9412001B
:1009900095848C941200446603D095968C96120030
:1009A0004450020AD8A403D095868C9612009586EE
:1009B0008C961200446603D095988C98120044508F
:1009C000020AD8A403D095888C98120095888C9838
:1009D0001200446603D0959A8C9A12004450020A81
:1009E000D8A403D0958A8C9A1200958A8C9A12000A
:1009F000446603D0959C8C9C12004450020AD8A4F3
:100A000003D0958C8C9C1200958C8C9C12004466B3
:100A100003D0959E8C9E12004450020AD8A403D0A5
:100A2000958E8C9E1200958E8C9E1200446603D08B
:100A300096908D9012004450020AD8A403D096805C
:100A40008D90120096808D901200446603D096928D
:100A50008D9212004450020AD8A403D096828D923F
:100A6000120096828D921200446603D096948D9463
:100A700012004450020AD8A403D096848D94120028
:100A800096848D9412004550000AD8B4C2D5010A4C
:100A9000D8B4D7D5030AD8B4ECD5010AD8B401D656
:100AA000070AD8B416D6010AD8B422D6030AD8B495
:100AB00037D6010AD8B443D60F0AD8B44FD6010AA4
:100AC000D8B45BD6030AD8B467D6010AD8B473D6B3
:100AD000070AD8B47FD6010AD8B48BD6030AD8B493
:100AE00097D6010AD8B4A3D61F0AD8B4AFD6010A44
:100AF000D8B4BBD6030AD8B4C7D6010AD8B4D3D663
:100B0000070AD8B4DFD6010AD8B4EBD6030AD8B4A2
:100B1000F7D6010AD8B403D70F0AD8B40FD7010A01
:100B2000D8B41BD7030AD8B427D7010AD8B433D70F
:100B3000070AD8B43FD7010AD8B44BD7030AD8B4B0
:100B400057D7010AD8B463D73F0AD8B46FD7010A80
:100B5000D8B47BD7030AD8A4120086D7416ED2D06E
:100B600040B002D0899001D08980120040B002D0FC
:100B7000899201D08982120040B002D0899401D0BC
:100B80008984120040B002D0899601D08986120073
:100B900040B002D0899801D08988120040B002D0BC
:100BA000899A01D0898A120040B002D0899C01D074
:100BB000898C120040B002D0899E01D0898E12002B
:100BC00040B002D08A9001D08A80120040B002D09A
:100BD0008A9201D08A82120040B002D08A9401D059
:100BE0008A84120040B002D08A9601D08A86120010
:100BF00040B002D08A9801D08A88120040B002D05A
:100C00008A9A01D08A8A120040B002D08A9C01D010
:100C10008A8C120040B002D08A9E01D08A8E1200C7
:100C200040B002D08B9001D08B80120040B002D037
:100C30008B9201D08B82120040B002D08B9401D0F5
:100C40008B84120040B002D08B9601D08B861200AC
:100C500040B002D08B9801D08B88120040B002D0F7
:100C60008B9A01D08B8A120040B002D08B9C01D0AD
:100C70008B8C120040B002D08B9E01D08B8E120064
:100C800040B002D08C9001D08C80120040B002D0D5
:100C90008C9201D08C82120040B002D08C9401D092
:100CA0008C84120040B002D08C9601D08C86120049
:100CB00040B002D08C9801D08C88120040B002D095
:100CC0008C9A01D08C8A120040B002D08C9C01D04A
:100CD0008C8C120040B002D08C9E01D08C8E120001
:100CE00040B002D08D9001D08D80120040B002D073
:100CF0008D9201D08D82120040B002D08D9401D02F
:100D00008D8412004150000AD8B42AD7010AD8B401
:100D10002DD7030AD8B430D7010AD8B433D7070A7D
:100D2000D8B436D7010AD8B439D7030AD8B43CD7D7
:100D3000010AD8B43FD70F0AD8B442D7010AD8B4B1
:100D400045D7030AD8B448D7010AD8B44BD7070A05
:100D5000D8B44ED7010AD8B451D7030AD8B454D75F
:100D6000010AD8B457D71F0AD8B45AD7010AD8B441
:100D70005DD7030AD8B460D7010AD8B463D7070A8D
:100D8000D8B466D7010AD8B469D7030AD8B46CD7E7
:100D9000010AD8B46FD70F0AD8B472D7010AD8B4F1
:100DA00075D7030AD8B478D7010AD8B47BD7070A15
:100DB000D8B47ED7010AD8B481D7030AD8B484D76F
:100DC000010AD8B487D73F0AD8B48AD7010AD8B461
:100DD0008DD7030AD8A412008FD7486E48C0C7F039
:100DE00047C0C8F01A662ED0030E32EC09F0000E90
:100DF000416E070E406E7DEC0AF0030E32EC09F0F6
:100E0000000E416E010E406E7DEC0AF0030E32ECD6
:100E100009F0000E416E010E406E7DEC0AF0020EEC
:100E200032EC09F0000E416E010E406E7DEC0AF0CE
:100E3000280EAEEC07F0000E416E010E406E7DEC08
:100E40000AF064D01A50020AD8A43CD0380E496E79
:100E500049C041F00650AFEC09F0495038EC0AF0B7
:100E6000000E416E050E406E67EC0AF0495038ECFA
:100E70000AF0000E416E010E406E67EC0AF0495018
:100E800038EC0AF0000E416E010E406E67EC0AF07D
:100E9000280E496E49C041F00650AFEC09F04950A8
:100EA00038EC0AF0000E416E010E406E67EC0AF05D
:100EB000280EAEEC07F0000E416E010E406E7DEC88
:100EC0000AF024D0300EAEEC07F0000E416E070E93
:100ED000406E7DEC0AF0300EAEEC07F0000E416E75
:100EE000010E406E7DEC0AF0300EAEEC07F0000E05
:100EF000416E010E406E7DEC0AF0380EAEEC07F04C
:100F0000000E416E010E406E7DEC0AF0080EAEEC54
:100F100007F0000E416E010E406E7DEC0AF0010EEE
:100F2000AEEC07F0000E416E070E406E7DEC0AF04D
:100F3000060EAEEC07F0000E416E010E406E7DEC29
:100F40000AF04E50AEEC07F0000E416E010E406EFE
:100F50007DEC0AF0000E0001CC6F1200466E1A669E
:100F600009D046380F0B32EC09F046500F0B32EC2B
:100F700009F012001A50020AD8A41AD04650F00BF9
:100F80000809456E45C041F00650AFEC09F04550E8
:100F900038EC0AF04638F00BF00B0809456E45C0F6
:100FA00041F00650AFEC09F0455038EC0AF0120061
:100FB00046A006D0010E406E1150AEEC05F005D0F3
:100FC000000E406E1150AEEC05F046A206D0010EA8
:100FD000406E1250AEEC05F005D0000E406E12507F
:100FE000AEEC05F046A406D0010E406E1350AEECF8
:100FF00005F005D0000E406E1350AEEC05F046A68D
:1010000006D0010E406E1450AEEC05F005D0000E77
:10101000406E1450AEEC05F046A806D0010E406EAE
:101020001550AEEC05F005D0000E406E1550AEEC3C
:1010300005F046AA06D0010E406E1650AEEC05F043
:1010400005D0000E406E1650AEEC05F046AC06D052
:10105000010E406E1750AEEC05F005D0000E406E4C
:101060001750AEEC05F046AE06D0010E406E18509B
:10107000AEEC05F005D0000E406E1850AEEC05F059
:10108000010E406E1950AEEC05F000F000F000F0DB
:1010900000F0000E406E1950AEEC05F01200000E8C
:1010A0000001CF6F000E0001D06F000E0001D16F64
:1010B000000E0001D26F4750441045104610D8B4BE
:1010C00033D0010E0001D36F07D0D8904436453697
:1010D000463647360001D32B47AEF7D70001D890EC
:1010E0000001CF370001D0370001D1370001D237DE
:1010F0004450405C45504158465042584750435830
:10110000D8A00AD04450405E4550415A4650425AF9
:101110004750435A0001CF81D8904732463245327A
:1011200044320001D32FDAD7CFC040F0D0C041F015
:10113000D1C042F0D2C043F01200700ED36E040E44
:10114000D26E400E9B6ED2AEFED7000E0F01386FEE
:10115000000E0F01396F000E0F013A6F000E0F01E4
:101160003B6F000E0F013C6FB00E0F01426F300E4F
:10117000C16E830EC06E000E896E000E8A6E000E68
:101180008B6E000E8C6E000E8D6E000E406E0FD0BA
:101190004050020D0001A20EF324D96E0001000E92
:1011A000F420DA6E000EDE6E000EDD6E402A090EAF
:1011B0004064EED7000ED56EF294F28AF1849E90D0
:1011C000000ECC6E320ECD6E910ED56EF28CD08E9E
:1011D000F28E1200C78EC686C694C692C690000EC6
:1011E000406E900E416ED00E426E030E436E0001B3
:1011F000D4C0D8F00001D5C0D9F00001D6C0DAF0D3
:101200000001D7C0DBF0020ED8900001D837D937E3
:10121000DA37DB37E82EF8D7D8C044F0D9C045F02C
:10122000DAC046F0DBC047F04FEC08F040C0DCF01D
:1012300041C0DDF042C0DEF043C0DFF00001DC055C
:10124000C86E010E446E130E07EC03F0010E446EDF
:10125000140E07EC03F0C69EC69CC68AC584C5A4BE
:101260001200FDD7426E42A006D0010E406E15500E
:10127000AEEC05F005D0000E406E1550AEEC05F05A
:1012800042A206D0010E406E1650AEEC05F005D01D
:10129000000E406E1650AEEC05F042A406D0010ED2
:1012A000406E1750AEEC05F005D0000E406E1750A2
:1012B000AEEC05F042A606D0010E406E1850AEEC22
:1012C00005F005D0000E406E1850AEEC05F0010E92
:1012D000406E1950AEEC05F000F000F000F000F0A8
:1012E000000E406E1950AEEC05F01200486E1A5018
:1012F000020AD8A420D04850F00B0909496E49C011
:1013000041F00650AFEC09F0495038EC0AF048388B
:10131000F00BF00B0909496E49C041F00650AFECE3
:1013200009F0495038EC0AF0499049C041F00650A4
:10133000AFEC09F01200010E406E1B50AEEC05F050
:101340004850AEEC07F0000E406E1B50AEEC05F0BE
:101350008C0E476E01D047064766FDD71200426EDD
:10136000000E0001C96FC580C5B0FED742504224AF
:10137000FE0BC96EB2EC0AF0C5AC07D0C584C5B48B
:10138000FED7010E0001C96F120041C0C9FFB2ECC7
:101390000AF0C5AC07D0C584C5B4FED7010E000164
:1013A000C96F1200C584C5B4FED7000E0001C96F15
:1013B000120001EE00F0C00EEE6AE806FDE100EE5C
:1013C00060F06F0EEE6AE806FDE100EE01F02E0E11
:1013D000EE6AE806FDE1BA0EF66E150EF76E000E27
:1013E000F86E00EE4BF010EE04F00900F5CFEEFFC2
:1013F000E550E150FAE1000EF86E0001BFEF0AF08F
:101400004A6E020E1A6EA00E0001D46F860E000105
:10141000D56F010E0001D66F000E0001D76FEAEC08
:1014200008F04AC006F0E0C0C7F0E1C0C8F0E1C073
:1014300047F00001E051EDEC06F012000DD0000184
:10144000CFC0F6FF0001D0C0F7FF0800F55076ECE2
:1014500009F00001CF4BD02B0001CFC0F6FF0001F7
:10146000D0C0F7FF0800F5500009D8B41200E7D744
:10147000436E43C044F0448444C041F00650AFEC96
:1014800009F000F000F000F000F0449444C041F096
:101490000650AFEC09F000F000F000F000F0120090
:1014A000100E0001E06F020E0001E16F270E00EC4C
:1014B0000AF0000E476E000EA3EC0AF0060E0001C3
:1014C000D06F010E0001CF6F1EEC0AF01200040075
:1014D0000FD04006D8A04106040E436E100E426E97
:1014E00003D04206D8A0430643504210D8A4F9D7EF
:1014F00041504010D8B41200ECD70FD04006D8A00D
:101500004106040E436E100E426E03D04206D8A070
:10151000430643504210D8A4F9D741504010D8B4E4
:101520001200ECD7426E42C040F0010E416E402ADC
:1015300002D0D8904136402EFCD74150436E4350E4
:101540000F0138131200486E4750400DF3504824E5
:10155000800FAEEC07F0000E416E010E406E7DEC88
:101560000AF01200C7A403D0406A402A01D0406AA2
:10157000C5501F0B40100009D8B41200F3D79DECE2
:1015800008F050EC0AF00400CBEC0AF0E0EC0AF0B2
:10159000DFEC0AF0F8D7019E01A012000190018E45
:1015A0001200F092E1EC0AF01200F090E2EC0AF086
:1015B0001200F292E3EC0AF012000A643C0C1200F2
:0815C0001200120012001200DB
:020000040020DA
:08000000FFFFFFFFFFFFFFFF00
:020000040030CA
:0E000000FF251F3FFFBF85FF0FC00FE00F4021
:00000001FF
